:020000040000FA
:100000008316043085004A30860083121C30850038
:100010004B30860056281F308500CF30860056288A
:100020001D3085006A30860056281D308500CA3094
:10003000860056281E308500CE30860056281C309B
:100040008500DA30860056281C3085005A3086003C
:1000500056281D308500CF30860056281C3085007C
:100060004A30860056281C308500CA308600562843
:100070001C3085004E30860056281E3085005A30D0
:10008000860056281C3085007B30860056281F309D
:1000900085004A30860056281C3085007A3086005C
:1000A00056281C3085007E30860056288618762813
:1000B0005928061B69285C28861964285F280519B9
:1000C0006328622806280B28051968286728102845
:1000D0001528861971286C28051970286F281A2888
:1000E0001F2805197528742824282928061B862806
:1000F0007928861981287C28051980287F282E28B0
:10010000332805198528842838283D2886198E2803
:10011000892805198D288C284228472805199228F6
:0601200091284C28512833
:00000001FF
